{
  "_format": "hh-sol-artifact-1",
  "contractName": "Product",
  "sourceName": "contracts/Product.sol",
  "abi": [
    {
      "inputs": [],
      "stateMutability": "nonpayable",
      "type": "constructor"
    },
    {
      "inputs": [
        {
          "internalType": "string",
          "name": "_name",
          "type": "string"
        },
        {
          "internalType": "string",
          "name": "_description",
          "type": "string"
        },
        {
          "internalType": "int256",
          "name": "_prize",
          "type": "int256"
        }
      ],
      "name": "buyProduct",
      "outputs": [],
      "stateMutability": "payable",
      "type": "function"
    },
    {
      "inputs": [],
      "name": "getProduct",
      "outputs": [
        {
          "components": [
            {
              "internalType": "string",
              "name": "name",
              "type": "string"
            },
            {
              "internalType": "string",
              "name": "description",
              "type": "string"
            },
            {
              "internalType": "int256",
              "name": "prize",
              "type": "int256"
            },
            {
              "internalType": "uint256",
              "name": "timestamp",
              "type": "uint256"
            },
            {
              "internalType": "address",
              "name": "from",
              "type": "address"
            }
          ],
          "internalType": "struct Product.ProductInfo[]",
          "name": "",
          "type": "tuple[]"
        }
      ],
      "stateMutability": "view",
      "type": "function"
    },
    {
      "inputs": [],
      "name": "owner",
      "outputs": [
        {
          "internalType": "address payable",
          "name": "",
          "type": "address"
        }
      ],
      "stateMutability": "view",
      "type": "function"
    },
    {
      "inputs": [
        {
          "internalType": "uint256",
          "name": "",
          "type": "uint256"
        }
      ],
      "name": "products",
      "outputs": [
        {
          "internalType": "string",
          "name": "name",
          "type": "string"
        },
        {
          "internalType": "string",
          "name": "description",
          "type": "string"
        },
        {
          "internalType": "int256",
          "name": "prize",
          "type": "int256"
        },
        {
          "internalType": "uint256",
          "name": "timestamp",
          "type": "uint256"
        },
        {
          "internalType": "address",
          "name": "from",
          "type": "address"
        }
      ],
      "stateMutability": "view",
      "type": "function"
    }
  ],
  "bytecode": "0x608060405234801561001057600080fd5b5033600160006101000a81548173ffffffffffffffffffffffffffffffffffffffff021916908373ffffffffffffffffffffffffffffffffffffffff160217905550610ead806100616000396000f3fe60806040526004361061003f5760003560e01c80633687a95b146100445780634ba20050146100605780637acc0b201461008b5780638da5cb5b146100cc575b600080fd5b61005e6004803603810190610059919061070e565b6100f7565b005b34801561006c57600080fd5b506100756102e0565b60405161008291906109db565b60405180910390f35b34801561009757600080fd5b506100b260048036038101906100ad9190610a29565b6104cd565b6040516100c3959493929190610acd565b60405180910390f35b3480156100d857600080fd5b506100e1610643565b6040516100ee9190610b4f565b60405180910390f35b600160009054906101000a900473ffffffffffffffffffffffffffffffffffffffff1673ffffffffffffffffffffffffffffffffffffffff166108fc349081150290604051600060405180830381858888f1935050505015801561015f573d6000803e3d6000fd5b5060006040518060a0016040528087878080601f016020809104026020016040519081016040528093929190818152602001838380828437600081840152601f19601f82011690508083019250505050505050815260200185858080601f016020809104026020016040519081016040528093929190818152602001838380828437600081840152601f19601f8201169050808301925050505050505081526020018381526020014281526020013373ffffffffffffffffffffffffffffffffffffffff16815250908060018154018082558091505060019003906000526020600020906005020160009091909190915060008201518160000190816102659190610da5565b50602082015181600101908161027b9190610da5565b50604082015181600201556060820151816003015560808201518160040160006101000a81548173ffffffffffffffffffffffffffffffffffffffff021916908373ffffffffffffffffffffffffffffffffffffffff16021790555050505050505050565b60606000805480602002602001604051908101604052809291908181526020016000905b828210156104c457838290600052602060002090600502016040518060a001604052908160008201805461033790610bc8565b80601f016020809104026020016040519081016040528092919081815260200182805461036390610bc8565b80156103b05780601f10610385576101008083540402835291602001916103b0565b820191906000526020600020905b81548152906001019060200180831161039357829003601f168201915b505050505081526020016001820180546103c990610bc8565b80601f01602080910402602001604051908101604052809291908181526020018280546103f590610bc8565b80156104425780601f1061041757610100808354040283529160200191610442565b820191906000526020600020905b81548152906001019060200180831161042557829003601f168201915b5050505050815260200160028201548152602001600382015481526020016004820160009054906101000a900473ffffffffffffffffffffffffffffffffffffffff1673ffffffffffffffffffffffffffffffffffffffff1673ffffffffffffffffffffffffffffffffffffffff168152505081526020019060010190610304565b50505050905090565b600081815481106104dd57600080fd5b906000526020600020906005020160009150905080600001805461050090610bc8565b80601f016020809104026020016040519081016040528092919081815260200182805461052c90610bc8565b80156105795780601f1061054e57610100808354040283529160200191610579565b820191906000526020600020905b81548152906001019060200180831161055c57829003601f168201915b50505050509080600101805461058e90610bc8565b80601f01602080910402602001604051908101604052809291908181526020018280546105ba90610bc8565b80156106075780601f106105dc57610100808354040283529160200191610607565b820191906000526020600020905b8154815290600101906020018083116105ea57829003601f168201915b5050505050908060020154908060030154908060040160009054906101000a900473ffffffffffffffffffffffffffffffffffffffff16905085565b600160009054906101000a900473ffffffffffffffffffffffffffffffffffffffff1681565b600080fd5b600080fd5b600080fd5b600080fd5b600080fd5b60008083601f84011261069857610697610673565b5b8235905067ffffffffffffffff8111156106b5576106b4610678565b5b6020830191508360018202830111156106d1576106d061067d565b5b9250929050565b6000819050919050565b6106eb816106d8565b81146106f657600080fd5b50565b600081359050610708816106e2565b92915050565b60008060008060006060868803121561072a57610729610669565b5b600086013567ffffffffffffffff8111156107485761074761066e565b5b61075488828901610682565b9550955050602086013567ffffffffffffffff8111156107775761077661066e565b5b61078388828901610682565b93509350506040610796888289016106f9565b9150509295509295909350565b600081519050919050565b600082825260208201905092915050565b6000819050602082019050919050565b600081519050919050565b600082825260208201905092915050565b60005b838110156108095780820151818401526020810190506107ee565b60008484015250505050565b6000601f19601f8301169050919050565b6000610831826107cf565b61083b81856107da565b935061084b8185602086016107eb565b61085481610815565b840191505092915050565b610868816106d8565b82525050565b6000819050919050565b6108818161086e565b82525050565b600073ffffffffffffffffffffffffffffffffffffffff82169050919050565b60006108b282610887565b9050919050565b6108c2816108a7565b82525050565b600060a08301600083015184820360008601526108e58282610826565b915050602083015184820360208601526108ff8282610826565b9150506040830151610914604086018261085f565b5060608301516109276060860182610878565b50608083015161093a60808601826108b9565b508091505092915050565b600061095183836108c8565b905092915050565b6000602082019050919050565b6000610971826107a3565b61097b81856107ae565b93508360208202850161098d856107bf565b8060005b858110156109c957848403895281516109aa8582610945565b94506109b583610959565b925060208a01995050600181019050610991565b50829750879550505050505092915050565b600060208201905081810360008301526109f58184610966565b905092915050565b610a068161086e565b8114610a1157600080fd5b50565b600081359050610a23816109fd565b92915050565b600060208284031215610a3f57610a3e610669565b5b6000610a4d84828501610a14565b91505092915050565b600082825260208201905092915050565b6000610a72826107cf565b610a7c8185610a56565b9350610a8c8185602086016107eb565b610a9581610815565b840191505092915050565b610aa9816106d8565b82525050565b610ab88161086e565b82525050565b610ac7816108a7565b82525050565b600060a0820190508181036000830152610ae78188610a67565b90508181036020830152610afb8187610a67565b9050610b0a6040830186610aa0565b610b176060830185610aaf565b610b246080830184610abe565b9695505050505050565b6000610b3982610887565b9050919050565b610b4981610b2e565b82525050565b6000602082019050610b646000830184610b40565b92915050565b7f4e487b7100000000000000000000000000000000000000000000000000000000600052604160045260246000fd5b7f4e487b7100000000000000000000000000000000000000000000000000000000600052602260045260246000fd5b60006002820490506001821680610be057607f821691505b602082108103610bf357610bf2610b99565b5b50919050565b60008190508160005260206000209050919050565b60006020601f8301049050919050565b600082821b905092915050565b600060088302610c5b7fffffffffffffffffffffffffffffffffffffffffffffffffffffffffffffffff82610c1e565b610c658683610c1e565b95508019841693508086168417925050509392505050565b6000819050919050565b6000610ca2610c9d610c988461086e565b610c7d565b61086e565b9050919050565b6000819050919050565b610cbc83610c87565b610cd0610cc882610ca9565b848454610c2b565b825550505050565b600090565b610ce5610cd8565b610cf0818484610cb3565b505050565b5b81811015610d1457610d09600082610cdd565b600181019050610cf6565b5050565b601f821115610d5957610d2a81610bf9565b610d3384610c0e565b81016020851015610d42578190505b610d56610d4e85610c0e565b830182610cf5565b50505b505050565b600082821c905092915050565b6000610d7c60001984600802610d5e565b1980831691505092915050565b6000610d958383610d6b565b9150826002028217905092915050565b610dae826107cf565b67ffffffffffffffff811115610dc757610dc6610b6a565b5b610dd18254610bc8565b610ddc828285610d18565b600060209050601f831160018114610e0f5760008415610dfd578287015190505b610e078582610d89565b865550610e6f565b601f198416610e1d86610bf9565b60005b82811015610e4557848901518255600182019150602085019450602081019050610e20565b86831015610e625784890151610e5e601f891682610d6b565b8355505b6001600288020188555050505b50505050505056fea26469706673582212206ffe25acf52bdc6043cb674001c7ed11b8b5f62600cf551c9c688b34459badbb64736f6c63430008180033",
  "linkReferences": {},
  "deployedLinkReferences": {}
}